{
    "_format": "hh-sol-artifact-1",
    "contractName": "MintableERC20",
    "sourceName": "contracts/MintableERC20.sol",
    "abi": [
        {
            "inputs": [],
            "stateMutability": "nonpayable",
            "type": "constructor"
        },
        {
            "inputs": [],
            "name": "FailedToSendEtherToOwner",
            "type": "error"
        },
        {
            "inputs": [],
            "name": "MintRequestOverMax",
            "type": "error"
        },
        {
            "inputs": [],
            "name": "MustMintOverZero",
            "type": "error"
        },
        {
            "anonymous": false,
            "inputs": [
                {
                    "indexed": true,
                    "internalType": "address",
                    "name": "owner",
                    "type": "address"
                },
                {
                    "indexed": true,
                    "internalType": "address",
                    "name": "spender",
                    "type": "address"
                },
                {
                    "indexed": false,
                    "internalType": "uint256",
                    "name": "value",
                    "type": "uint256"
                }
            ],
            "name": "Approval",
            "type": "event"
        },
        {
            "anonymous": false,
            "inputs": [
                {
                    "indexed": true,
                    "internalType": "address",
                    "name": "previousOwner",
                    "type": "address"
                },
                {
                    "indexed": true,
                    "internalType": "address",
                    "name": "newOwner",
                    "type": "address"
                }
            ],
            "name": "OwnershipTransferred",
            "type": "event"
        },
        {
            "anonymous": false,
            "inputs": [
                {
                    "indexed": false,
                    "internalType": "address",
                    "name": "minter",
                    "type": "address"
                },
                {
                    "indexed": false,
                    "internalType": "uint256",
                    "name": "amount",
                    "type": "uint256"
                }
            ],
            "name": "PurchaseOccurred",
            "type": "event"
        },
        {
            "anonymous": false,
            "inputs": [
                {
                    "indexed": true,
                    "internalType": "address",
                    "name": "from",
                    "type": "address"
                },
                {
                    "indexed": true,
                    "internalType": "address",
                    "name": "to",
                    "type": "address"
                },
                {
                    "indexed": false,
                    "internalType": "uint256",
                    "name": "value",
                    "type": "uint256"
                }
            ],
            "name": "Transfer",
            "type": "event"
        },
        {
            "inputs": [],
            "name": "MAX_TO_MINT",
            "outputs": [
                {
                    "internalType": "uint256",
                    "name": "",
                    "type": "uint256"
                }
            ],
            "stateMutability": "view",
            "type": "function"
        },
        {
            "inputs": [],
            "name": "NATIVE_TO_TOKEN",
            "outputs": [
                {
                    "internalType": "uint256",
                    "name": "",
                    "type": "uint256"
                }
            ],
            "stateMutability": "view",
            "type": "function"
        },
        {
            "inputs": [
                {
                    "internalType": "address",
                    "name": "owner",
                    "type": "address"
                },
                {
                    "internalType": "address",
                    "name": "spender",
                    "type": "address"
                }
            ],
            "name": "allowance",
            "outputs": [
                {
                    "internalType": "uint256",
                    "name": "",
                    "type": "uint256"
                }
            ],
            "stateMutability": "view",
            "type": "function"
        },
        {
            "inputs": [
                {
                    "internalType": "address",
                    "name": "spender",
                    "type": "address"
                },
                {
                    "internalType": "uint256",
                    "name": "amount",
                    "type": "uint256"
                }
            ],
            "name": "approve",
            "outputs": [
                {
                    "internalType": "bool",
                    "name": "",
                    "type": "bool"
                }
            ],
            "stateMutability": "nonpayable",
            "type": "function"
        },
        {
            "inputs": [
                {
                    "internalType": "address",
                    "name": "account",
                    "type": "address"
                }
            ],
            "name": "balanceOf",
            "outputs": [
                {
                    "internalType": "uint256",
                    "name": "",
                    "type": "uint256"
                }
            ],
            "stateMutability": "view",
            "type": "function"
        },
        {
            "inputs": [],
            "name": "decimals",
            "outputs": [
                {
                    "internalType": "uint8",
                    "name": "",
                    "type": "uint8"
                }
            ],
            "stateMutability": "view",
            "type": "function"
        },
        {
            "inputs": [
                {
                    "internalType": "address",
                    "name": "spender",
                    "type": "address"
                },
                {
                    "internalType": "uint256",
                    "name": "subtractedValue",
                    "type": "uint256"
                }
            ],
            "name": "decreaseAllowance",
            "outputs": [
                {
                    "internalType": "bool",
                    "name": "",
                    "type": "bool"
                }
            ],
            "stateMutability": "nonpayable",
            "type": "function"
        },
        {
            "inputs": [
                {
                    "internalType": "address",
                    "name": "spender",
                    "type": "address"
                },
                {
                    "internalType": "uint256",
                    "name": "addedValue",
                    "type": "uint256"
                }
            ],
            "name": "increaseAllowance",
            "outputs": [
                {
                    "internalType": "bool",
                    "name": "",
                    "type": "bool"
                }
            ],
            "stateMutability": "nonpayable",
            "type": "function"
        },
        {
            "inputs": [],
            "name": "name",
            "outputs": [
                {
                    "internalType": "string",
                    "name": "",
                    "type": "string"
                }
            ],
            "stateMutability": "view",
            "type": "function"
        },
        {
            "inputs": [],
            "name": "owner",
            "outputs": [
                {
                    "internalType": "address",
                    "name": "",
                    "type": "address"
                }
            ],
            "stateMutability": "view",
            "type": "function"
        },
        {
            "inputs": [],
            "name": "purchaseMint",
            "outputs": [],
            "stateMutability": "payable",
            "type": "function"
        },
        {
            "inputs": [],
            "name": "renounceOwnership",
            "outputs": [],
            "stateMutability": "nonpayable",
            "type": "function"
        },
        {
            "inputs": [],
            "name": "symbol",
            "outputs": [
                {
                    "internalType": "string",
                    "name": "",
                    "type": "string"
                }
            ],
            "stateMutability": "view",
            "type": "function"
        },
        {
            "inputs": [],
            "name": "totalSupply",
            "outputs": [
                {
                    "internalType": "uint256",
                    "name": "",
                    "type": "uint256"
                }
            ],
            "stateMutability": "view",
            "type": "function"
        },
        {
            "inputs": [
                {
                    "internalType": "address",
                    "name": "to",
                    "type": "address"
                },
                {
                    "internalType": "uint256",
                    "name": "amount",
                    "type": "uint256"
                }
            ],
            "name": "transfer",
            "outputs": [
                {
                    "internalType": "bool",
                    "name": "",
                    "type": "bool"
                }
            ],
            "stateMutability": "nonpayable",
            "type": "function"
        },
        {
            "inputs": [
                {
                    "internalType": "address",
                    "name": "from",
                    "type": "address"
                },
                {
                    "internalType": "address",
                    "name": "to",
                    "type": "address"
                },
                {
                    "internalType": "uint256",
                    "name": "amount",
                    "type": "uint256"
                }
            ],
            "name": "transferFrom",
            "outputs": [
                {
                    "internalType": "bool",
                    "name": "",
                    "type": "bool"
                }
            ],
            "stateMutability": "nonpayable",
            "type": "function"
        },
        {
            "inputs": [
                {
                    "internalType": "address",
                    "name": "newOwner",
                    "type": "address"
                }
            ],
            "name": "transferOwnership",
            "outputs": [],
            "stateMutability": "nonpayable",
            "type": "function"
        }
    ],
    "bytecode": "0x60806040523480156200001157600080fd5b506040518060400160405280600f81526020017f4d696e7461626c652045524320323000000000000000000000000000000000008152506040518060400160405280600481526020017f4d4552430000000000000000000000000000000000000000000000000000000081525081600390816200008f919062000412565b508060049081620000a1919062000412565b505050620000c4620000b8620000ca60201b60201c565b620000d260201b60201c565b620004f9565b600033905090565b6000600560009054906101000a900473ffffffffffffffffffffffffffffffffffffffff16905081600560006101000a81548173ffffffffffffffffffffffffffffffffffffffff021916908373ffffffffffffffffffffffffffffffffffffffff1602179055508173ffffffffffffffffffffffffffffffffffffffff168173ffffffffffffffffffffffffffffffffffffffff167f8be0079c531659141344cd1fd0a4f28419497f9722a3daafe3b4186f6b6457e060405160405180910390a35050565b600081519050919050565b7f4e487b7100000000000000000000000000000000000000000000000000000000600052604160045260246000fd5b7f4e487b7100000000000000000000000000000000000000000000000000000000600052602260045260246000fd5b600060028204905060018216806200021a57607f821691505b60208210810362000230576200022f620001d2565b5b50919050565b60008190508160005260206000209050919050565b60006020601f8301049050919050565b600082821b905092915050565b6000600883026200029a7fffffffffffffffffffffffffffffffffffffffffffffffffffffffffffffffff826200025b565b620002a686836200025b565b95508019841693508086168417925050509392505050565b6000819050919050565b6000819050919050565b6000620002f3620002ed620002e784620002be565b620002c8565b620002be565b9050919050565b6000819050919050565b6200030f83620002d2565b620003276200031e82620002fa565b84845462000268565b825550505050565b600090565b6200033e6200032f565b6200034b81848462000304565b505050565b5b8181101562000373576200036760008262000334565b60018101905062000351565b5050565b601f821115620003c2576200038c8162000236565b62000397846200024b565b81016020851015620003a7578190505b620003bf620003b6856200024b565b83018262000350565b50505b505050565b600082821c905092915050565b6000620003e760001984600802620003c7565b1980831691505092915050565b6000620004028383620003d4565b9150826002028217905092915050565b6200041d8262000198565b67ffffffffffffffff811115620004395762000438620001a3565b5b62000445825462000201565b6200045282828562000377565b600060209050601f8311600181146200048a576000841562000475578287015190505b620004818582620003f4565b865550620004f1565b601f1984166200049a8662000236565b60005b82811015620004c4578489015182556001820191506020850194506020810190506200049d565b86831015620004e45784890151620004e0601f891682620003d4565b8355505b6001600288020188555050505b505050505050565b611b4d80620005096000396000f3fe6080604052600436106100fe5760003560e01c806370a0823111610095578063a457c2d711610064578063a457c2d71461031a578063a9059cbb14610357578063c66677ac14610394578063dd62ed3e146103bf578063f2fde38b146103fc576100fe565b806370a0823114610270578063715018a6146102ad5780638da5cb5b146102c457806395d89b41146102ef576100fe565b8063313ce567116100d1578063313ce567146101d357806339509351146101fe5780633ac8ab391461023b578063607d0d1e14610245576100fe565b806306fdde0314610103578063095ea7b31461012e57806318160ddd1461016b57806323b872dd14610196575b600080fd5b34801561010f57600080fd5b50610118610425565b60405161012591906111c7565b60405180910390f35b34801561013a57600080fd5b5061015560048036038101906101509190611282565b6104b7565b60405161016291906112dd565b60405180910390f35b34801561017757600080fd5b506101806104da565b60405161018d9190611307565b60405180910390f35b3480156101a257600080fd5b506101bd60048036038101906101b89190611322565b6104e4565b6040516101ca91906112dd565b60405180910390f35b3480156101df57600080fd5b506101e8610513565b6040516101f59190611391565b60405180910390f35b34801561020a57600080fd5b5061022560048036038101906102209190611282565b61051c565b60405161023291906112dd565b60405180910390f35b610243610553565b005b34801561025157600080fd5b5061025a6106eb565b6040516102679190611307565b60405180910390f35b34801561027c57600080fd5b50610297600480360381019061029291906113ac565b6106f7565b6040516102a49190611307565b60405180910390f35b3480156102b957600080fd5b506102c261073f565b005b3480156102d057600080fd5b506102d9610753565b6040516102e691906113e8565b60405180910390f35b3480156102fb57600080fd5b5061030461077d565b60405161031191906111c7565b60405180910390f35b34801561032657600080fd5b50610341600480360381019061033c9190611282565b61080f565b60405161034e91906112dd565b60405180910390f35b34801561036357600080fd5b5061037e60048036038101906103799190611282565b610886565b60405161038b91906112dd565b60405180910390f35b3480156103a057600080fd5b506103a96108a9565b6040516103b69190611307565b60405180910390f35b3480156103cb57600080fd5b506103e660048036038101906103e19190611403565b6108b6565b6040516103f39190611307565b60405180910390f35b34801561040857600080fd5b50610423600480360381019061041e91906113ac565b61093d565b005b60606003805461043490611472565b80601f016020809104026020016040519081016040528092919081815260200182805461046090611472565b80156104ad5780601f10610482576101008083540402835291602001916104ad565b820191906000526020600020905b81548152906001019060200180831161049057829003601f168201915b5050505050905090565b6000806104c26109c0565b90506104cf8185856109c8565b600191505092915050565b6000600254905090565b6000806104ef6109c0565b90506104fc858285610b91565b610507858585610c1d565b60019150509392505050565b60006012905090565b6000806105276109c0565b905061054881858561053985896108b6565b61054391906114d2565b6109c8565b600191505092915050565b6000670de0b6b3a7640000346105699190611535565b9050600081036105a5576040517fd33fcd9d00000000000000000000000000000000000000000000000000000000815260040160405180910390fd5b683635c9adc5dea000006105b76104da565b826105c291906114d2565b11156105fa576040517fc0e58fc900000000000000000000000000000000000000000000000000000000815260040160405180910390fd5b6000610604610753565b73ffffffffffffffffffffffffffffffffffffffff163460405161062790611597565b60006040518083038185875af1925050503d8060008114610664576040519150601f19603f3d011682016040523d82523d6000602084013e610669565b606091505b50509050806106a4576040517fdc72795500000000000000000000000000000000000000000000000000000000815260040160405180910390fd5b6106ae3383610e93565b7fe58e8ce99e24c881da3e8d5b2cc2894e7a79e5b9a4d9ba7c9475fe49201ae40e33836040516106df9291906115ac565b60405180910390a15050565b670de0b6b3a764000081565b60008060008373ffffffffffffffffffffffffffffffffffffffff1673ffffffffffffffffffffffffffffffffffffffff168152602001908152602001600020549050919050565b610747610fe9565b6107516000611067565b565b6000600560009054906101000a900473ffffffffffffffffffffffffffffffffffffffff16905090565b60606004805461078c90611472565b80601f01602080910402602001604051908101604052809291908181526020018280546107b890611472565b80156108055780601f106107da57610100808354040283529160200191610805565b820191906000526020600020905b8154815290600101906020018083116107e857829003601f168201915b5050505050905090565b60008061081a6109c0565b9050600061082882866108b6565b90508381101561086d576040517f08c379a000000000000000000000000000000000000000000000000000000000815260040161086490611647565b60405180910390fd5b61087a82868684036109c8565b60019250505092915050565b6000806108916109c0565b905061089e818585610c1d565b600191505092915050565b683635c9adc5dea0000081565b6000600160008473ffffffffffffffffffffffffffffffffffffffff1673ffffffffffffffffffffffffffffffffffffffff16815260200190815260200160002060008373ffffffffffffffffffffffffffffffffffffffff1673ffffffffffffffffffffffffffffffffffffffff16815260200190815260200160002054905092915050565b610945610fe9565b600073ffffffffffffffffffffffffffffffffffffffff168173ffffffffffffffffffffffffffffffffffffffff16036109b4576040517f08c379a00000000000000000000000000000000000000000000000000000000081526004016109ab906116d9565b60405180910390fd5b6109bd81611067565b50565b600033905090565b600073ffffffffffffffffffffffffffffffffffffffff168373ffffffffffffffffffffffffffffffffffffffff1603610a37576040517f08c379a0000000000000000000000000000000000000000000000000000000008152600401610a2e9061176b565b60405180910390fd5b600073ffffffffffffffffffffffffffffffffffffffff168273ffffffffffffffffffffffffffffffffffffffff1603610aa6576040517f08c379a0000000000000000000000000000000000000000000000000000000008152600401610a9d906117fd565b60405180910390fd5b80600160008573ffffffffffffffffffffffffffffffffffffffff1673ffffffffffffffffffffffffffffffffffffffff16815260200190815260200160002060008473ffffffffffffffffffffffffffffffffffffffff1673ffffffffffffffffffffffffffffffffffffffff168152602001908152602001600020819055508173ffffffffffffffffffffffffffffffffffffffff168373ffffffffffffffffffffffffffffffffffffffff167f8c5be1e5ebec7d5bd14f71427d1e84f3dd0314c0f7b2291e5b200ac8c7c3b92583604051610b849190611307565b60405180910390a3505050565b6000610b9d84846108b6565b90507fffffffffffffffffffffffffffffffffffffffffffffffffffffffffffffffff8114610c175781811015610c09576040517f08c379a0000000000000000000000000000000000000000000000000000000008152600401610c0090611869565b60405180910390fd5b610c1684848484036109c8565b5b50505050565b600073ffffffffffffffffffffffffffffffffffffffff168373ffffffffffffffffffffffffffffffffffffffff1603610c8c576040517f08c379a0000000000000000000000000000000000000000000000000000000008152600401610c83906118fb565b60405180910390fd5b600073ffffffffffffffffffffffffffffffffffffffff168273ffffffffffffffffffffffffffffffffffffffff1603610cfb576040517f08c379a0000000000000000000000000000000000000000000000000000000008152600401610cf29061198d565b60405180910390fd5b610d0683838361112d565b60008060008573ffffffffffffffffffffffffffffffffffffffff1673ffffffffffffffffffffffffffffffffffffffff16815260200190815260200160002054905081811015610d8c576040517f08c379a0000000000000000000000000000000000000000000000000000000008152600401610d8390611a1f565b60405180910390fd5b8181036000808673ffffffffffffffffffffffffffffffffffffffff1673ffffffffffffffffffffffffffffffffffffffff16815260200190815260200160002081905550816000808573ffffffffffffffffffffffffffffffffffffffff1673ffffffffffffffffffffffffffffffffffffffff168152602001908152602001600020600082825401925050819055508273ffffffffffffffffffffffffffffffffffffffff168473ffffffffffffffffffffffffffffffffffffffff167fddf252ad1be2c89b69c2b068fc378daa952ba7f163c4a11628f55a4df523b3ef84604051610e7a9190611307565b60405180910390a3610e8d848484611132565b50505050565b600073ffffffffffffffffffffffffffffffffffffffff168273ffffffffffffffffffffffffffffffffffffffff1603610f02576040517f08c379a0000000000000000000000000000000000000000000000000000000008152600401610ef990611a8b565b60405180910390fd5b610f0e6000838361112d565b8060026000828254610f2091906114d2565b92505081905550806000808473ffffffffffffffffffffffffffffffffffffffff1673ffffffffffffffffffffffffffffffffffffffff168152602001908152602001600020600082825401925050819055508173ffffffffffffffffffffffffffffffffffffffff16600073ffffffffffffffffffffffffffffffffffffffff167fddf252ad1be2c89b69c2b068fc378daa952ba7f163c4a11628f55a4df523b3ef83604051610fd19190611307565b60405180910390a3610fe560008383611132565b5050565b610ff16109c0565b73ffffffffffffffffffffffffffffffffffffffff1661100f610753565b73ffffffffffffffffffffffffffffffffffffffff1614611065576040517f08c379a000000000000000000000000000000000000000000000000000000000815260040161105c90611af7565b60405180910390fd5b565b6000600560009054906101000a900473ffffffffffffffffffffffffffffffffffffffff16905081600560006101000a81548173ffffffffffffffffffffffffffffffffffffffff021916908373ffffffffffffffffffffffffffffffffffffffff1602179055508173ffffffffffffffffffffffffffffffffffffffff168173ffffffffffffffffffffffffffffffffffffffff167f8be0079c531659141344cd1fd0a4f28419497f9722a3daafe3b4186f6b6457e060405160405180910390a35050565b505050565b505050565b600081519050919050565b600082825260208201905092915050565b60005b83811015611171578082015181840152602081019050611156565b60008484015250505050565b6000601f19601f8301169050919050565b600061119982611137565b6111a38185611142565b93506111b3818560208601611153565b6111bc8161117d565b840191505092915050565b600060208201905081810360008301526111e1818461118e565b905092915050565b600080fd5b600073ffffffffffffffffffffffffffffffffffffffff82169050919050565b6000611219826111ee565b9050919050565b6112298161120e565b811461123457600080fd5b50565b60008135905061124681611220565b92915050565b6000819050919050565b61125f8161124c565b811461126a57600080fd5b50565b60008135905061127c81611256565b92915050565b60008060408385031215611299576112986111e9565b5b60006112a785828601611237565b92505060206112b88582860161126d565b9150509250929050565b60008115159050919050565b6112d7816112c2565b82525050565b60006020820190506112f260008301846112ce565b92915050565b6113018161124c565b82525050565b600060208201905061131c60008301846112f8565b92915050565b60008060006060848603121561133b5761133a6111e9565b5b600061134986828701611237565b935050602061135a86828701611237565b925050604061136b8682870161126d565b9150509250925092565b600060ff82169050919050565b61138b81611375565b82525050565b60006020820190506113a66000830184611382565b92915050565b6000602082840312156113c2576113c16111e9565b5b60006113d084828501611237565b91505092915050565b6113e28161120e565b82525050565b60006020820190506113fd60008301846113d9565b92915050565b6000806040838503121561141a576114196111e9565b5b600061142885828601611237565b925050602061143985828601611237565b9150509250929050565b7f4e487b7100000000000000000000000000000000000000000000000000000000600052602260045260246000fd5b6000600282049050600182168061148a57607f821691505b60208210810361149d5761149c611443565b5b50919050565b7f4e487b7100000000000000000000000000000000000000000000000000000000600052601160045260246000fd5b60006114dd8261124c565b91506114e88361124c565b9250828201905080821115611500576114ff6114a3565b5b92915050565b7f4e487b7100000000000000000000000000000000000000000000000000000000600052601260045260246000fd5b60006115408261124c565b915061154b8361124c565b92508261155b5761155a611506565b5b828204905092915050565b600081905092915050565b50565b6000611581600083611566565b915061158c82611571565b600082019050919050565b60006115a282611574565b9150819050919050565b60006040820190506115c160008301856113d9565b6115ce60208301846112f8565b9392505050565b7f45524332303a2064656372656173656420616c6c6f77616e63652062656c6f7760008201527f207a65726f000000000000000000000000000000000000000000000000000000602082015250565b6000611631602583611142565b915061163c826115d5565b604082019050919050565b6000602082019050818103600083015261166081611624565b9050919050565b7f4f776e61626c653a206e6577206f776e657220697320746865207a65726f206160008201527f6464726573730000000000000000000000000000000000000000000000000000602082015250565b60006116c3602683611142565b91506116ce82611667565b604082019050919050565b600060208201905081810360008301526116f2816116b6565b9050919050565b7f45524332303a20617070726f76652066726f6d20746865207a65726f2061646460008201527f7265737300000000000000000000000000000000000000000000000000000000602082015250565b6000611755602483611142565b9150611760826116f9565b604082019050919050565b6000602082019050818103600083015261178481611748565b9050919050565b7f45524332303a20617070726f766520746f20746865207a65726f20616464726560008201527f7373000000000000000000000000000000000000000000000000000000000000602082015250565b60006117e7602283611142565b91506117f28261178b565b604082019050919050565b60006020820190508181036000830152611816816117da565b9050919050565b7f45524332303a20696e73756666696369656e7420616c6c6f77616e6365000000600082015250565b6000611853601d83611142565b915061185e8261181d565b602082019050919050565b6000602082019050818103600083015261188281611846565b9050919050565b7f45524332303a207472616e736665722066726f6d20746865207a65726f20616460008201527f6472657373000000000000000000000000000000000000000000000000000000602082015250565b60006118e5602583611142565b91506118f082611889565b604082019050919050565b60006020820190508181036000830152611914816118d8565b9050919050565b7f45524332303a207472616e7366657220746f20746865207a65726f206164647260008201527f6573730000000000000000000000000000000000000000000000000000000000602082015250565b6000611977602383611142565b91506119828261191b565b604082019050919050565b600060208201905081810360008301526119a68161196a565b9050919050565b7f45524332303a207472616e7366657220616d6f756e742065786365656473206260008201527f616c616e63650000000000000000000000000000000000000000000000000000602082015250565b6000611a09602683611142565b9150611a14826119ad565b604082019050919050565b60006020820190508181036000830152611a38816119fc565b9050919050565b7f45524332303a206d696e7420746f20746865207a65726f206164647265737300600082015250565b6000611a75601f83611142565b9150611a8082611a3f565b602082019050919050565b60006020820190508181036000830152611aa481611a68565b9050919050565b7f4f776e61626c653a2063616c6c6572206973206e6f7420746865206f776e6572600082015250565b6000611ae1602083611142565b9150611aec82611aab565b602082019050919050565b60006020820190508181036000830152611b1081611ad4565b905091905056fea264697066735822122073f733e72d201b2fe46817af58b4cb5f4f9c498f8d31cdabf815a7e4d7ff40a064736f6c63430008110033",
    "linkReferences": {},
    "deployedLinkReferences": {}
}